:020000040800F2
:10000000B80600204D0200088710000821100008E3
:1000100085100008430400081D12000800000000BD
:100020000000000000000000000000008B1000082D
:100030004504000800000000891000088D10000829
:1000400067020008670200086702000867020008EC
:1000500067020008670200086702000867020008DC
:1000600067020008670200086702000867020008CC
:1000700067020008670200086702000867020008BC
:1000800067020008670200086702000867020008AC
:10009000670200086702000867020008670200089C
:1000A000670200086702000867020008670200088C
:1000B000670200086702000867020008670200087C
:1000C000670200086702000867020008670200086C
:1000D000670200086702000867020008670200085C
:1000E000670200086702000867020008670200084C
:1000F000670200086702000867020008670200083C
:10010000670200086702000867020008670200082B
:10011000670200086702000835110008670200083E
:10012000670200086702000867020008670200080B
:1001300067020008670200086702000867020008FB
:1001400067020008670200086702000867020008EB
:1001500067020008670200086702000867020008DB
:1001600067020008670200086702000867020008CB
:10017000670200086702000867020008000000002C
:1001800067020008670200086702000867020008AB
:10019000670200086702000867020008670200089B
:1001A00067020008670200086702000800F002F812
:1001B00000F03CF80AA090E8000C82448344AAF1C5
:1001C0000107DA4501D100F031F8AFF2090EBAE8C3
:1001D0000F0013F0010F18BFFB1A43F0010318477B
:1001E000D0100000F0100000103A24BF78C878C189
:1001F000FAD8520724BF30C830C144BF04680C602D
:10020000704700000023002400250026103A28BF74
:1002100078C1FBD8520728BF30C148BF0B60704778
:100220001FB501F037F81FBD10B510BD00F0CFF8B5
:100230001146FFF7F5FF01F003F800F0EDF803B405
:10024000FFF7F2FF03BC00F0F5F800000948804713
:1002500009480047FEE7FEE7FEE7FEE7FEE7FEE7A8
:10026000FEE7FEE7FEE7FEE704480549054A064BC0
:100270007047000025110008AD010008B8000020FB
:10028000B8060020B8020020B802002053EA020C91
:1002900000F069802DE9F04B4FF00006002B1FBFE6
:1002A000B3FA83F503FA05F424FA05F65E4012BFAB
:1002B0001643B2FA82F502FA05F4C5F120051EBF15
:1002C00022FA05FC44EA0C04203556EA044C4FEAB5
:1002D000144418BF641C4FF000084FF0000990420E
:1002E00071EB030C39D3002919BFB1FA81F701FA78
:1002F00007F6B0FA80F700FA07F6C7F120071EBF2D
:1003000020FA07FC46EA0C062037B6FBF4FCA7EB04
:100310000507103F07F01F0BCBF120060CFA0BFB73
:100320002CFA06F644BFB3460026202FA4BF5E4633
:100330004FF0000B5BEA060C08BF4FF0010B19EB06
:100340000B09ABFB027C48EB0608C01B06FB02CC8A
:100350000BFB03CC71EB0C01C1E70B460246414697
:100360004846BDE8F08B13B54FF000004FF0000198
:10037000AFF30080BDE81C4070474FF0000200B5AD
:10038000134694469646203922BFA0E80C50A0E8B8
:100390000C50B1F12001BFF4F7AF090728BFA0E866
:1003A0000C5048BF0CC05DF804EB890028BF40F832
:1003B000042B08BF704748BF20F8022B11F0804F74
:1003C00018BF00F8012B704770477047704775469B
:1003D00000F02CF8AE4605006946534620F00700B1
:1003E000854618B020B5FFF73FFFBDE820404FF02D
:1003F00000064FF000074FF000084FF0000B21F00F
:100400000701AC46ACE8C009ACE8C009ACE8C009DB
:10041000ACE8C0098D46704710B50446AFF30080C4
:100420002046BDE81040FFF70ABF000000487047B3
:100430005800002001491820ABBEFEE7260002004C
:100440007047FEE7704700002DE9F84FDFF8F8A18C
:10045000002201240AF1040B03254FF00F090BF1D0
:10046000040E00BF0B6804FA02F63340B34270D1A9
:100470000F7907F00307012F01D0022F16D18768EB
:100480004FEA420805FA08FC27EA0C07D1F80CC02D
:100490000CFA08FC4CEA070CC0F808C04768B743E0
:1004A0000E79C6F3001696403E4346600E79F64339
:1004B000B6070AD0C7684FEA420C05FA0CF6B743F4
:1004C0008E6806FA0CF63E43C6600E7906F0030607
:1004D000022E10D1D60800EB8608D8F82060570706
:1004E0004FEAD76C09FA0CF7BE430F6907FA0CF70D
:1004F0003743C8F8207006684FEA420C05FA0CF73B
:10050000BE430F7907F0030707FA0CF7374307607C
:100510004E6816F4403F1CD04C4E376847F4804775
:100520003760366822F0030706F480460096484E8E
:1005300007EB060CDCF8086897073F0F09FA07F885
:1005400026EA0806DFF80C81404503D14FF0000889
:1005500041E072E0DFF80081404502D14FF0010830
:1005600039E0DFF8F880404502D14FF0020832E070
:10057000DFF8EC80404502D14FF003082BE0DFF8B4
:10058000E480404502D14FF0040824E0DFF8D88031
:10059000404502D14FF005081DE0DFF8D08040450E
:1005A00002D14FF0060816E0DFF8C480404502D1C2
:1005B0004FF007080FE0DFF8BC80404502D14FF054
:1005C000080808E0DFF8B080404502D14FF0090884
:1005D00001E04FF00A0808FA07F848EA0608CCF8E4
:1005E0000888DAF800605746D1F804C09E435FEAF5
:1005F000CC3C00D51E433E60DBF800605F46D1F87E
:1006000004C09E435FEA8C3C00D51E433E60DEF88A
:1006100000607746D1F804C09E435FEACC2C00D539
:100620001E433E60084F0C373E68D1F804C09E431D
:100630005FEA8C2C00D51E433E60521C102AFFF44A
:1006400011AFBDE8F88F0000003C01404438024083
:100650000030014000000240000402400008024057
:10066000000C02400010024000140240001802403A
:10067000001C02400020024000240240426921EA9E
:1006800002030A4043EA0241816170470AB1816175
:1006900070470904FBE700000148806870470000CC
:1006A0000000002002488168027811448160704790
:1006B000000000200B4810B5016841F40071016092
:1006C000016841F480610160016841F4807101605A
:1006D000032000F071F8002000F006F800F024F884
:1006E000002010BD003C024070B50D4D04464FF493
:1006F0007A712878B1FBF0F00A490968B1FBF0F093
:1007000000F0ECFA48B9102C07D200222146501E06
:1007100000F032F800206C6070BD012070BD000058
:10072000000000200C0000200B4882B0016841F45A
:1007300080410160006800F4804000900648001F7E
:10074000016841F080510160006800F08050009025
:10075000072002B000F030B844380240002809DB1E
:1007600000F01F02012191404009800000F1E020CB
:10077000C0F8001170470000F0B40E4B1B680C4627
:10078000C3F30223C3F10705042D00D90425191D65
:10079000072901D2002300E0DB1E012606FA05F13D
:1007A000491E214099409E40761E16403143F0BCC0
:1007B00000F035BD0CED00E0064900F007020868C6
:1007C0004FF6FF03184040EA0220034A1043086036
:1007D000704700000CED00E00000FA052DE9F0473D
:1007E0000E46050065D0DFF81481D8F80000F7B296
:1007F00000F00F00B04207D288F80070D8F800006F
:1008000000F00F00B04254D128683D4C810712D54A
:10081000400703D5206840F4E050206028780007A6
:1008200003D5206840F4604020602068A96820F06B
:10083000F000084320602878C0072DD03049686850
:100840000839012812D0022813D0032811D00968D2
:10085000890700292DDA216821F003010143216075
:10086000FFF71AFF814641F2883A0EE009688903D2
:10087000EFE709688901ECE7FFF70EFFA0EB09013C
:10088000514502D90320BDE8F0872068696800F06F
:100890000C00B0EB810FEFD1D8F80010404601F00A
:1008A0000F01B14207D90770006800F00F00B04295
:1008B00001D00120E7E72878400705D52068E968DE
:1008C00020F4E050084320602878000706D520680F
:1008D000296920F4604040EAC100206000F018F867
:1008E0002168084AC1F30311515CC84006490860F9
:1008F00006480068FFF7F8FE0020C4E7003C02400D
:10090000083802409E1200080C000020040000205D
:10091000154810B5006810F00C02144813D04110AF
:10092000042A0FD0082A0ED10F4C241F22682368F6
:1009300002F03F025B0207D52068C0F38810A0FBDD
:10094000010106E0084610BD2168C1F38811A1FB32
:1009500000010023FFF79AFC2168C1F30141491C03
:100960004900B0FBF1F010BD083802400024F4004B
:100970002DE9F84F04006ED02078DFF84C93C007C3
:10098000A9F104054AD009F104000168C1F381010D
:10099000012908D00068C0F3810002280AD1D9F8E3
:1009A0000000400206D52868800337D5606800281B
:1009B000E1D033E06068B0F5803F10D0B0F5A02FF3
:1009C000286810D020F480302860286820F4802027
:1009D00028606068A8B1FFF75FFE06460DE0286852
:1009E00040F48030F4E740F480202860F7E700BF4F
:1009F000FFF752FE801B642873D828688003F7D560
:100A00000CE0FFF749FE064605E000BFFFF744FE95
:100A1000801B6428F0D828688003F7D42078DFF89A
:100A2000AC8280074FF0000A3ED5A748001D016840
:100A300011F00C0F08D00068C0F3810002280BD120
:100A4000D9F80000400207D42868800716D5E0686E
:100A5000012800D112E033E1E068B8B10120C8F804
:100A60000000FFF719FE064605E000BFFFF714FE81
:100A7000801B0228C0D828688007F7D5286821691C
:100A800020F0F80040EAC10028600DE0C8F800A09E
:100A9000FFF702FE064604E0FFF7FEFD801B02287A
:100AA0001FD828688007F7D42078000722D5864F02
:100AB00087486169703771B101210160FFF7ECFD72
:100AC000064604E0FFF7E8FD801B022809D83868D5
:100AD0008007F7D50EE0C0F800A0FFF7DDFD064661
:100AE00005E082E0FFF7D8FD801B02287DD838683A
:100AF0008007F7D42078400768D5DFF8CCB100270D
:100B00000BF13C0BDBF80000C0000BD4DBF800104D
:100B100041F08051CBF80010DBF80000012700F015
:100B2000805000906B4E3068C00510D4306840F49F
:100B300080703060FFF7B0FD009005E0FFF7ACFD7E
:100B40000099401A022850D83068C005F6D55E4E8C
:100B5000A0686C3601280FD00528306810D020F02E
:100B600001003060306820F004003060A068B8B147
:100B7000FFF792FD00900FE0306840F00100F4E7CD
:100B800040F004003060F7E7FFF786FD0099411A56
:100B900041F28830814266D830688007F4D50EE093
:100BA000FFF77AFD009007E0FFF776FD0099411A04
:100BB00041F28830814256D830688007F4D42FB192
:100BC000DBF8001021F08051CBF80010A069C8B309
:100BD0003D49091D0968C1F3810102294AD0022853
:100BE000504607D0C8F8600000E03CE0FFF754FD35
:100BF00004463BE04746C8F86000FFF74DFD064657
:100C000005E000BFFFF748FD801B02282BD82868AD
:100C10008001F7D4D4E907010843A16A2E4A4908A4
:100C200002EB0141626A41EA8211084394F82C10F8
:100C300040EA0161C9F8001001203866FFF72CFD79
:100C4000044606E03EE000BFFFF726FD001B022839
:100C500009D828688001F7D534E000BFFFF71CFDF4
:100C6000001B022802D90320BDE8F88F2868800104
:100C7000F4D427E00128F7D0D9F80000E26900F4A5
:100C8000800191421CD1226A00F03F01914217D1AC
:100C900047F6C071626A0140B1EB821F10D1A26AAF
:100CA0004FF0FF3300F4403103EB5202B1EB024F3F
:100CB00006D194F82C1000F07060B0EB016F01D0F9
:100CC0000120D1E70020CFE704380240000047426E
:100CD000800E4742007000400000FFFF10B5401E2C
:100CE000B0F1807F01D3012010BD4FF0E02460619E
:100CF0000F21601700F093FA0020A0610720206107
:100D0000002010BD7047704770B590F83C20012A54
:100D100032D0012480F83C40022280F83D20036854
:100D20005A689D6822F070060A6832435A60134B75
:100D300002689A4214D0B2F1804F11D0104B9A42FF
:100D40000ED0104B9A420BD00F4B9A4208D00F4B4B
:100D50009A4205D00E4B9A4202D00E4B9A4204D1D1
:100D6000496825F080031943916080F83D400021D7
:100D700080F83C10084670BD022070BD00000140A4
:100D80000004004000080040000C00400004014046
:100D9000004001400018004010B5040003D094F852
:100DA0003D0010B107E0012010BD002084F83C0098
:100DB000204600F01FF8022084F83D00211D206825
:100DC00000F0C8F9012084F8460084F83E0084F859
:100DD0003F0084F8400084F8410084F8420084F821
:100DE000430084F8440084F8450084F83D00002066
:100DF00010BD000008B500680B49884212D10B48AD
:100E0000016841F0100101600068002200F010004C
:100E1000009011463620FFF7AFFCBDE808403620B1
:100E2000FFF79CBC08BD00000010004040380240A5
:100E300090F83D10012901D001207047022180F86F
:100E40003D100168CA6842F00102CA600068114999
:100E5000884214D0B0F1804F11D00F4988420ED093
:100E60000E4988420BD00E49884208D00D4988426D
:100E700005D00D49884202D00C49884204D18168CE
:100E800001F00701062903D0016841F0010101606A
:100E900000207047000001400004004000080040AE
:100EA000000C0040000401400040014000180040D8
:100EB000704770B50446006801694FF00005C943EA
:100EC000890715D4C168C943890711D4E91E016196
:100ED00001202077206880698007204602D0FFF734
:100EE000E7FF04E000F098F8204600F096F8257738
:100EF00020680169C943490717D4C168C943490734
:100F000013D46FF00401016102202077206880690A
:100F100010F4407F204602D0FFF7CAFF04E000F043
:100F20007BF8204600F079F8257720680169C943ED
:100F3000090716D4C168C943090712D46FF0080124
:100F40000161042020772068C0698007204602D014
:100F5000FFF7AEFF04E000F05FF8204600F05DF818
:100F6000257720680169C943C90617D4C168C943F8
:100F7000C90613D46FF010010161082020772068A2
:100F8000C06910F4407F204602D0FFF791FF04E0D3
:100F900000F042F8204600F040F82577206801690B
:100FA000C943C90708D1C168C943C90704D1891E0B
:100FB0000161204600F032F820680169C943090642
:100FC00009D4C168C943090605D46FF080010161E5
:100FD0002046FFF797FE20680169C943490609D4F6
:100FE000C168C943490605D46FF04001016120463C
:100FF00000F015F820680169C94389060BD4C1685F
:10100000C943890607D46FF0200101612046BDE87D
:101010007040FFF778BE70BD7047704770477047EB
:10102000FEE7000070B586B014216846FFF7A5F909
:1010300012480024016841F080010160016801F05C
:1010400080010591016841F04001016000680C4E8B
:1010500000F040004FF400550590224629463046E6
:10106000FFF714FB01200095CDE9010469463046E5
:101070000394FFF7E9F906B070BD00003038024074
:1010800000180240FEE7FEE770477047FFF70ABB13
:1010900030B593B030216846FFF76FF914210CA8E2
:1010A000FFF76BF91D480025016841F08051016090
:1010B000006800F0805011901948016841F44041E7
:1010C00001600068022400F440401190012000906B
:1010D000000401908001CDE9064004200890A8207A
:1010E000CDE9090407200B906846FFF741FC08B1E1
:1010F00072B6FEE70CA90F2081E831004FF4A05032
:101100000F904FF48050109005210CA8FFF766FB5C
:10111000002801D072B6FEE713B030BD403802405F
:10112000007000400248016841F47001016070479E
:1011300088ED00E010B50548FFF7BBFEBDE81040A4
:101140004FF400510248FFF799BA00001000002048
:1011500000180240F0B50268254C264D264E274F58
:10116000274B4FF0804CA04209D0604507D0A842E1
:1011700005D0B04203D0B84201D0984204D122F049
:10118000700E4A6842EA0E02A0421BD0604519D098
:10119000A84217D0B04215D0B84213D0984211D00F
:1011A000184DA8420ED0184DA8420BD0174DA8429A
:1011B00008D0174DA84205D0164DA84202D0164DB2
:1011C000A84203D122F44075CA682A434D6922F02F
:1011D00080022A4302608A68C2620A688262A04270
:1011E00001D0984201D10969016301214161F0BD3B
:1011F000000001400004004000080040000C0040D6
:10120000000401400040014000440140004801400A
:1012100000180040001C004000200040FEE70907C5
:10122000090E002804DB00F1E02080F8001470476C
:1012300000F00F0000F1E02080F8141D704700005E
:101240001CB5FFF737FAFFF723FFFFF7EBFE00248B
:101250000F4800940D490194C0E9001440F26A312E
:10126000C0E9024180218161FFF796FD08B172B6A5
:10127000FEE70094694606480194FFF745FD08B172
:1012800072B6FEE70248FFF7D3FDFEE7001000400C
:10129000100000204FF04070E1EE100A704700008F
:1012A0000000000000000102030406070809000016
:1012B000D01200080000002010000000E801000823
:1012C000E012000810000020A80600000402000838
:1012D0000100000010000000000000000024F400E5
:04000005080001AD41
:00000001FF
