:020000040800F2
:10000000D00600204D020008FF160008D512000897
:10001000FD16000843040008AD17000800000000AA
:1000200000000000000000000000000003170008AE
:10003000450400080000000001170008051700082B
:1000400067020008670200086702000867020008EC
:1000500067020008670200086702000867020008DC
:1000600067020008670200086702000867020008CC
:1000700067020008670200086702000867020008BC
:1000800067020008670200086702000867020008AC
:10009000670200086702000867020008670200089C
:1000A000670200086702000867020008670200088C
:1000B000670200086702000867020008670200087C
:1000C000670200086702000867020008670200086C
:1000D000670200086702000867020008670200085C
:1000E000670200086702000867020008670200084C
:1000F000670200086702000867020008670200083C
:10010000670200086702000867020008670200082B
:10011000670200086702000867020008670200081B
:10012000670200086702000867020008670200080B
:1001300067020008670200086702000867020008FB
:1001400067020008670200086702000867020008EB
:1001500067020008670200086702000867020008DB
:1001600067020008670200086702000867020008CB
:10017000670200086702000867020008000000002C
:1001800067020008670200086702000867020008AB
:10019000670200086702000867020008670200089B
:1001A00067020008670200086702000800F002F812
:1001B00000F03CF80AA090E8000C82448344AAF1C5
:1001C0000107DA4501D100F031F8AFF2090EBAE8C3
:1001D0000F0013F0010F18BFFB1A43F0010318477B
:1001E0001417000034170000103A24BF78C878C1F3
:1001F000FAD8520724BF30C830C144BF04680C602D
:10020000704700000023002400250026103A28BF74
:1002100078C1FBD8520728BF30C148BF0B60704778
:100220001FB501F055FB1FBD10B510BD00F0CFF894
:100230001146FFF7F5FF01F0CBFA00F0EDF803B43B
:10024000FFF7F2FF03BC00F0F5F800000948804713
:1002500009480047FEE7FEE7FEE7FEE7FEE7FEE7A8
:10026000FEE7FEE7FEE7FEE704480549054A064BC0
:10027000704700009D170008AD010008D000002065
:10028000D0060020D0020020D002002053EA020C49
:1002900000F069802DE9F04B4FF00006002B1FBFE6
:1002A000B3FA83F503FA05F424FA05F65E4012BFAB
:1002B0001643B2FA82F502FA05F4C5F120051EBF15
:1002C00022FA05FC44EA0C04203556EA044C4FEAB5
:1002D000144418BF641C4FF000084FF0000990420E
:1002E00071EB030C39D3002919BFB1FA81F701FA78
:1002F00007F6B0FA80F700FA07F6C7F120071EBF2D
:1003000020FA07FC46EA0C062037B6FBF4FCA7EB04
:100310000507103F07F01F0BCBF120060CFA0BFB73
:100320002CFA06F644BFB3460026202FA4BF5E4633
:100330004FF0000B5BEA060C08BF4FF0010B19EB06
:100340000B09ABFB027C48EB0608C01B06FB02CC8A
:100350000BFB03CC71EB0C01C1E70B460246414697
:100360004846BDE8F08B13B54FF000004FF0000198
:10037000AFF30080BDE81C4070474FF0000200B5AD
:10038000134694469646203922BFA0E80C50A0E8B8
:100390000C50B1F12001BFF4F7AF090728BFA0E866
:1003A0000C5048BF0CC05DF804EB890028BF40F832
:1003B000042B08BF704748BF20F8022B11F0804F74
:1003C00018BF00F8012B704770477047704775469B
:1003D00000F02CF8AE4605006946534620F00700B1
:1003E000854618B020B5FFF73FFFBDE820404FF02D
:1003F00000064FF000074FF000084FF0000B21F00F
:100400000701AC46ACE8C009ACE8C009ACE8C009DB
:10041000ACE8C0098D46704710B50446AFF30080C4
:100420002046BDE81040FFF70ABF000000487047B3
:100430006C00002001491820ABBEFEE72600020038
:100440007047FEE77047000070B5044600F028F9D9
:100450000546601C02D004480078044400F020F9EE
:10046000401BA042FAD370BD080000202DE9F84FD0
:10047000DFF8F8A1002201240AF1040B03254FF054
:100480000F090BF1040E00BF0B6804FA02F63340AB
:10049000B34270D10F7907F00307012F01D0022F6B
:1004A00016D187684FEA420805FA08FC27EA0C07CC
:1004B000D1F80CC00CFA08FC4CEA070CC0F808C0D4
:1004C0004768B7430E79C6F3001696403E43466030
:1004D0000E79F643B6070AD0C7684FEA420C05FA10
:1004E0000CF6B7438E6806FA0CF63E43C6600E79EA
:1004F00006F00306022E10D1D60800EB8608D8F8C5
:10050000206057074FEAD76C09FA0CF7BE430F6912
:1005100007FA0CF73743C8F8207006684FEA420C18
:1005200005FA0CF7BE430F7907F0030707FA0CF73B
:10053000374307604E6816F4403F1CD04C4E376876
:1005400047F480473760366822F0030706F4804698
:100550000096484E07EB060CDCF8086897073F0F3B
:1005600009FA07F826EA0806DFF80C81404503D1AE
:100570004FF0000841E072E0DFF80081404502D111
:100580004FF0010839E0DFF8F880404502D14FF024
:10059000020832E0DFF8EC80404502D14FF003085A
:1005A0002BE0DFF8E480404502D14FF0040824E05E
:1005B000DFF8D880404502D14FF005081DE0DFF894
:1005C000D080404502D14FF0060816E0DFF8C48025
:1005D000404502D14FF007080FE0DFF8BC804045EE
:1005E00002D14FF0080808E0DFF8B080404502D1A2
:1005F0004FF0090801E04FF00A0808FA07F848EA46
:100600000608CCF80888DAF800605746D1F804C02C
:100610009E435FEACC3C00D51E433E60DBF80060A1
:100620005F46D1F804C09E435FEA8C3C00D51E4370
:100630003E60DEF800607746D1F804C09E435FEA72
:10064000CC2C00D51E433E60084F0C373E68D1F8D5
:1006500004C09E435FEA8C2C00D51E433E60521CB2
:10066000102AFFF411AFBDE8F88F0000003C0140F4
:1006700044380240003001400000024000040240C3
:1006800000080240000C024000100240001402402A
:1006900000180240001C02400020024000240240DA
:1006A00001488068704700000800002090F83D2055
:1006B000202A01D002207047242280F83D200268C1
:1006C000136823F0010313600268536A23F01003D8
:1006D00053620268536A0B43536201680A6842F02E
:1006E00001020A60202180F83D100020704790F838
:1006F0003D20202A01D002207047242280F83D208E
:100700000268136823F00103136003685A6A22F039
:100710000F020A4391B2596201680A6842F001026D
:100720000A60202180F83D100020704770B5040059
:1007300025D094F83D00002520B984F83C5020468F
:1007400000F04CFA242084F83D002068016821F074
:10075000010101602068016841F4004101602068E6
:10076000016821F40041016000F0AAFB4D4A616874
:10077000914201D84C4900E04C49884201D2012005
:1007800070BD4B492368B0FBF1F15E6826F03F066F
:100790000E435E606368934206D94FF496735943E3
:1007A0004FF47A73B1FBF3F12368491C1E6A26F0FB
:1007B0003F06314319626168914210D84900401EDA
:1007C000B0FBF1F2521CC2F30B02042A01D2042046
:1007D00022E0B0FBF1F0401CC0F30B001CE0A2686B
:1007E000F2B301EBC10303EB0116431EB3FBF6F3B7
:1007F0005B1C43F480431B0549D092B301EBC1025B
:1008000002EB0111401EB0FBF1F0401CC0F30B00E5
:1008100040F4804040F400402168CA694CF6FF7300
:100820009A431043C861D4E9071001432068026865
:1008300022F0C00211430160D4E9030101432068A2
:10084000826848F2FF339A4311438160D4E905017D
:1008500008432168CA6822F0FF021043C86001E023
:100860000EE016E02068016841F001010160256496
:10087000202084F83D00256384F83E50002070BDA0
:1008800001EB4106431EB3FBF6F35B1CB3E701200B
:10089000C2E701EB4101401EB0FBF1F0401CC0F388
:1008A0000B00B7E7A086010080841E0000093D0010
:1008B00040420F002DE9FF4F83B09A46DDE91197C2
:1008C00093460446DDF84080FFF7EAFE054694F8BB
:1008D0003D00202870D1192301227149204600953E
:1008E00000F008FE0028F5D194F83C00012863D000
:1008F000012084F83C0020680168C90703D1016821
:1009000041F0010101602068016821F4006101608B
:10091000222084F83D00402084F83E000026266412
:10092000C4F82480A4F82A90608D20855D48E06298
:10093000CDE9007553465A462046049900F0E2FC82
:1009400000287CD1208DD0B1012821D00228206838
:1009500024D0416980690090208D032869D801283E
:100960002BD0514902283B464FF00002009559D048
:100970008846204600F0BEFD002860D13CE020689B
:10098000416981690091016841F40071016077E07B
:100990002068016821F480610160F0E7016821F4BA
:1009A000806101602068016841F400610160206895
:1009B00041698069009063E06FE02A46394620462D
:1009C00000F017FE98BB20680069616A08704EE06D
:1009D0002068016841F40071016020680069616A63
:1009E0000870606A401C6062218D491E2185618DFE
:1009F000491E6185216838E02068016821F4806122
:100A0000016020680069616A0870606A401C606269
:100A1000208D401E2085608D401E60853B46002253
:100A200041460095204600F065FD00B9D0E706E09C
:100A3000FFE72A463946204600F0DBFD18B10120C9
:100A400007B0BDE8F08F20680069616A0870606ACD
:100A5000401C6062218D491E2185618D491E618582
:100A600021684A69D24352070AD409690170606A51
:100A7000401C6062208D401E2085608D401E608578
:100A8000208D00287FF468AF202084F83D0084F892
:100A90003E6084F83C600020D2E70220D0E70000EE
:100AA000020010000000FFFF040001002DE9FF4FCD
:100AB00083B09A46DDE9119793460446DDF84080FD
:100AC000FFF7EEFD054694F83D0020287FD119235D
:100AD000012240492046009500F00CFD002876D107
:100AE00094F83C00012872D0012084F83C00206872
:100AF0000168C90703D1016841F001010160206864
:100B0000016821F400610160212084F83D0040204B
:100B100084F83E0000262664C4F82480A4F82A90B5
:100B2000608D20852C48E062CDE9007553465A4619
:100B30002046049900F064FC70B930E02A4639463A
:100B4000204600F089FD58B1206C042804D12068AB
:100B5000016841F400710160012007B0BDE8F08F29
:100B6000606A216800780861606A401C6062218DBB
:100B7000491E89B22185628D521E628522685369A1
:100B8000DB435B070BD469B100781061606A401CDD
:100B90006062208D401E2085608D401E6085208D06
:100BA0000028CBD12A463946204600F07DFC00289B
:100BB000CAD154F83D0B016841F400710160202056
:100BC00004F81E09E67766770020C6E7FFE70220F3
:100BD000C3E70000020010000000FFFFF0B587B07F
:100BE000044614216846FFF7C8FB1D492068884267
:100BF00033D11C480024016841F004010160016800
:100C000001F004010591016841F0010101600068F3
:100C1000122500F0010005904FF40070CDE90005A9
:100C200002AA0326042782E8D00069460E48FFF78F
:100C30001DFCB801CDE9000502AA694682E8D00092
:100C40000A48FFF713FC07481030016841F400011F
:100C50000160006800F40000059007B0F0BD0000DE
:100C6000005C0040303802400008024000000240B2
:100C700002488168027811448160704708000020B2
:100C80000B4810B5016841F400710160016841F43E
:100C900080610160016841F480710160032000F00F
:100CA00063F8002000F006F800F024F8002010BDE2
:100CB000003C024070B50D4D04464FF47A7128781F
:100CC000B1FBF0F00A490968B1FBF0F000F0EEFA70
:100CD00048B9102C07D200222146501E00F024F8FB
:100CE00000206C6070BD012070BD00000800002075
:100CF000140000200B4882B0016841F4804101607B
:100D0000006800F4804000900648001F016841F030
:100D100080510160006800F080500090072002B010
:100D200000F022B844380240F0B40E4B1B680C4669
:100D3000C3F30223C3F10705042D00D90425191DAF
:100D4000072901D2002300E0DB1E012606FA05F187
:100D5000491E214099409E40761E16403143F0BC0A
:100D600000F025BD0CED00E0064900F00702086820
:100D70004FF6FF03184040EA0220034A1043086080
:100D8000704700000CED00E00000FA052DE9F04787
:100D90000E46050065D0DFF81481D8F80000F7B2E0
:100DA00000F00F00B04207D288F80070D8F80000B9
:100DB00000F00F00B04254D128683D4C810712D595
:100DC000400703D5206840F4E050206028780007F1
:100DD00003D5206840F4604020602068A96820F0B6
:100DE000F000084320602878C0072DD0304968689B
:100DF0000839012812D0022813D0032811D009681D
:100E0000890700292DDA216821F0030101432160BF
:100E1000FFF746FC814641F2883A0EE009688903F3
:100E2000EFE709688901ECE7FFF73AFCA0EB09015D
:100E3000514502D90320BDE8F0872068696800F0B9
:100E40000C00B0EB810FEFD1D8F80010404601F054
:100E50000F01B14207D90770006800F00F00B042DF
:100E600001D00120E7E72878400705D52068E96828
:100E700020F4E050084320602878000706D5206859
:100E8000296920F4604040EAC100206000F028F8A1
:100E90002168084AC1F30311515CC8400649086043
:100EA00006480068FFF706FF0020C4E7003C024048
:100EB00008380240DA180008140000200C00002056
:100EC0000448054900680968044AC1F38221515C5D
:100ED000C84070471400002008380240EA18000893
:100EE000154810B5006810F00C02144813D04110DA
:100EF000042A0FD0082A0ED10F4C241F2268236821
:100F000002F03F025B0207D52068C0F38810A0FB07
:100F1000010106E0084610BD2168C1F38811A1FB5C
:100F200000010023FFF7B2F92168C1F30141491C18
:100F30004900B0FBF1F010BD083802400024F40075
:100F40002DE9F84F04006ED02078DFF84C93C007ED
:100F5000A9F104054AD009F104000168C1F3810137
:100F6000012908D00068C0F3810002280AD1D9F80D
:100F70000000400206D52868800337D56068002845
:100F8000E1D033E06068B0F5803F10D0B0F5A02F1D
:100F9000286810D020F480302860286820F4802051
:100FA00028606068A8B1FFF77BFB06460DE0286863
:100FB00040F48030F4E740F480202860F7E700BF79
:100FC000FFF76EFB801B642873D828688003F7D571
:100FD0000CE0FFF765FB064605E000BFFFF760FB8E
:100FE000801B6428F0D828688003F7D42078DFF8C5
:100FF000AC8280074FF0000A3ED5A748001D01686B
:1010000011F00C0F08D00068C0F3810002280BD14A
:10101000D9F80000400207D42868800716D5E06898
:10102000012800D112E033E1E068B8B10120C8F82E
:101030000000FFF735FB064605E000BFFFF730FB79
:10104000801B0228C0D828688007F7D52868216946
:1010500020F0F80040EAC10028600DE0C8F800A0C8
:10106000FFF71EFB064604E0FFF71AFB801B022871
:101070001FD828688007F7D42078000722D5864F2C
:1010800087486169703771B101210160FFF708FB82
:10109000064604E0FFF704FB801B022809D83868E5
:1010A0008007F7D50EE0C0F800A0FFF7F9FA064672
:1010B00005E082E0FFF7F4FA801B02287DD838684B
:1010C0008007F7D42078400768D5DFF8CCB1002737
:1010D0000BF13C0BDBF80000C0000BD4DBF8001078
:1010E00041F08051CBF80010DBF80000012700F040
:1010F000805000906B4E3068C00510D4306840F4CA
:1011000080703060FFF7CCFA009005E0FFF7C8FA76
:101110000099401A022850D83068C005F6D55E4EB6
:10112000A0686C3601280FD00528306810D020F058
:1011300001003060306820F004003060A068B8B171
:10114000FFF7AEFA00900FE0306840F00100F4E7DE
:1011500040F004003060F7E7FFF7A2FA0099411A67
:1011600041F28830814266D830688007F4D50EE0BD
:10117000FFF796FA009007E0FFF792FA0099411AFC
:1011800041F28830814256D830688007F4D42FB1BC
:10119000DBF8001021F08051CBF80010A069C8B333
:1011A0003D49091D0968C1F3810102294AD002287D
:1011B000504607D0C8F8600000E03CE0FFF770FA46
:1011C00004463BE04746C8F86000FFF769FA064668
:1011D00005E000BFFFF764FA801B02282BD82868BF
:1011E0008001F7D4D4E907010843A16A2E4A4908CF
:1011F00002EB0141626A41EA8211084394F82C1023
:1012000040EA0161C9F8001001203866FFF748FA8A
:10121000044606E03EE000BFFFF742FA001B02284A
:1012200009D828688001F7D534E000BFFFF738FA05
:10123000001B022802D90320BDE8F88F286880012E
:10124000F4D427E00128F7D0D9F80000E26900F4CF
:10125000800191421CD1226A00F03F01914217D1D6
:1012600047F6C071626A0140B1EB821F10D1A26AD9
:101270004FF0FF3300F4403103EB5202B1EB024F69
:1012800006D194F82C1000F07060B0EB016F01D023
:101290000120D1E70020CFE7043802400000474298
:1012A000800E4742007000400000FFFF10B5401E56
:1012B000B0F1807F01D3012010BD4FF0E0246061C8
:1012C0000F21601700F073FA0020A0610720206151
:1012D000002010BDFEE701684A69D24352050FD4D1
:1012E0006FF480624A61002140F8301F202242736F
:1012F0008173026942F004020261017301207047A8
:10130000002070472DE9F84F0446006889460B9D80
:1013100001689846174641F48061016020680168C1
:1013200041F48071016000954FF0011B0022594685
:1013300020460A9B00F0DEF84FF4007A40B12068A6
:101340000068C00501D5C4F840A00320BDE8F88FAF
:10135000216809F0FE0008612B46284920460A9AB8
:1013600000F0FCF8F0BB20684169806900902A46D3
:1013700020460A9900F070F940B1206C04283AD157
:101380002068016841F40071016034E0FEB2B8F1F8
:10139000010F09D02168380A08612A4620460A99B7
:1013A00000F05AF90028E8D1206806612A46204654
:1013B0000A9900F051F90028DFD12068016841F452
:1013C0008071016000950022594620460A9B00F07A
:1013D00091F80028B3D1216809F0FF0040F0010026
:1013E000086100E007E02B46044920460A9A00F015
:1013F000B5F80028AAD00120A8E7000002000100EB
:101400002DE9F843044600680D46DDE908970168B8
:101410009846164641F4807101604B4600224FF019
:1014200001112046009700F065F848B12068006877
:10143000C00502D54FF4007020640320BDE8F88396
:10144000216805F0FE0008613B464A4615492046E2
:1014500000F084F888B920684169806900903A46B4
:101460004946204600F0F8F848B1206C042804D121
:101470002068016841F4007101600120DEE7F5B2E7
:10148000B8F1010F09D02168300A08613A4649468F
:10149000204600F0E1F80028E7D12068056100202F
:1014A000CCE700000200010070B516460D46044668
:1014B0000DE02046FFF70FFF08B1012070BD681C4A
:1014C00005D0FFF7EDF8801BA84207D835B120689A
:1014D0004069C0434007ECD4002070BD002044F8B0
:1014E000300F20216173A073216941F02001216137
:1014F0002073E2E72DE9F0471E4690460D4604466C
:10150000C1F30747DDF8209008E0701C06D0FFF714
:10151000C7F8A0EB0900B0420FD876B12068012FC0
:1015200018D0806925EA00000004000C14D00021C6
:101530004145EAD00020BDE8F087002044F8300F94
:1015400020216173A073216941F020012161207382
:101550000120F0E74069E5E70121E9E72DE9F047DF
:101560009A4691460E46044600254FF02008C1F3E6
:10157000074725E020684069C043400514D420682F
:10158000016841F40071016021686FF48060486176
:10159000256384F83D8084F83E50206C40F00400C0
:1015A000206484F83C501FE0B9F1FF3F08D0FFF7FA
:1015B00077F8A0EB0A0149450CD8B9F1000F09D022
:1015C0002068012F13D0806926EA00000004000C77
:1015D0000BD0CFE744F8305F84F80D80A573206905
:1015E00040F02000206125730120BDE8F0874069AC
:1015F000EAE72DE9F041002590460E4604462027F3
:1016000017E04069C043C0060CD454F8301B6FF09B
:101610001000486144F810596777A577206A206266
:10162000257717E0FFF73CF8A0EB0800B04208D898
:101630003EB120684169C9434906E2D40020BDE8B3
:10164000F08144F8305F6773A573206940F0200093
:10165000206125730120F2E770B516460D46044659
:101660000DE02046FFF737FE08B1012070BD681C71
:1016700005D0FFF715F8801BA84207D835B12068C0
:101680004069C0430006ECD4002070BD002044F83F
:10169000300F20216173A073216941F02001216185
:1016A0002073E2E7134810B5114901601249416007
:1016B00000214FF480428160C0E9031241618161E1
:1016C000C1610162FFF732F808B172B6FEE700218E
:1016D0000848FEF7EBFF08B172B6FEE700210548A7
:1016E000FFF705F8002801D072B6FEE710BD000034
:1016F000005C004018000020A0860100FEE7FEE725
:1017000070477047FFF7B4BA30B593B030216846E0
:10171000FEF733FE14210CA8FEF72FFE1D4800250E
:10172000016841F080510160006800F08050119024
:101730001948016841F4404101600068022400F446
:101740004040119001200090000401908001CDE9FB
:10175000064004200890A820CDE9090407200B903A
:101760006846FFF7EDFB08B172B6FEE70CA90F2043
:1017700081E831004FF4A0500F904FF4805010904A
:1017800005210CA8FFF702FB002801D072B6FEE786
:1017900013B030BD4038024000700040024801687C
:1017A00041F470010160704788ED00E0FEE7090731
:1017B000090E002804DB00F1E02080F800147047D7
:1017C00000F00F0000F1E02080F8141D70470000C9
:1017D0000EB5FFF755FAFFF797FF3A480025016865
:1017E00041F080010160016801F080010091016811
:1017F00041F004010160016801F0040100910168F9
:1018000041F001010160006800F001000090FFF765
:1018100049FF2D4C012633462570CDE9004664254D
:101820000422822129480295FFF740F97120207097
:10183000CDE9004601234022822124480295FFF78A
:1018400035F907202070CDE900460123602282216E
:101850001E480295FFF72AF9C0202070CDE9004606
:1018600001234122822119480295FFF71FF9A61D85
:1018700002270096CDE90175012300228221134839
:10188000FFF718F80096CDE9017501234D2282215A
:101890000E48FFF70FF870783178012300EB012034
:1018A00060800096CDE901754F2282210748FFF73D
:1018B00001F87078317800EB0120A0806420FEF7F9
:1018C000C3FDDFE730380240000000201800002090
:1018D0004FF04070E1EE100A704700000000000079
:1018E00000000102030406070809000000000102CD
:1018F0000304000014190008000000201800000074
:10190000E80100082C19000818000020B8060000A3
:1019100004020008000000000000000001000000B8
:0C19200010000000000000000024F40093
:04000005080001AD41
:00000001FF
